{
  "_format": "hh-sol-artifact-1",
  "contractName": "MusicNFTMarketplace",
  "sourceName": "src/backend/contracts/MusicNFTMarketplace.sol",
  "abi": [
    {
      "anonymous": false,
      "inputs": [
        {
          "indexed": true,
          "internalType": "address",
          "name": "owner",
          "type": "address"
        },
        {
          "indexed": true,
          "internalType": "address",
          "name": "approved",
          "type": "address"
        },
        {
          "indexed": true,
          "internalType": "uint256",
          "name": "tokenId",
          "type": "uint256"
        }
      ],
      "name": "Approval",
      "type": "event"
    },
    {
      "anonymous": false,
      "inputs": [
        {
          "indexed": true,
          "internalType": "address",
          "name": "owner",
          "type": "address"
        },
        {
          "indexed": true,
          "internalType": "address",
          "name": "operator",
          "type": "address"
        },
        {
          "indexed": false,
          "internalType": "bool",
          "name": "approved",
          "type": "bool"
        }
      ],
      "name": "ApprovalForAll",
      "type": "event"
    },
    {
      "anonymous": false,
      "inputs": [
        {
          "indexed": true,
          "internalType": "address",
          "name": "previousOwner",
          "type": "address"
        },
        {
          "indexed": true,
          "internalType": "address",
          "name": "newOwner",
          "type": "address"
        }
      ],
      "name": "OwnershipTransferred",
      "type": "event"
    },
    {
      "anonymous": false,
      "inputs": [
        {
          "indexed": true,
          "internalType": "address",
          "name": "from",
          "type": "address"
        },
        {
          "indexed": true,
          "internalType": "address",
          "name": "to",
          "type": "address"
        },
        {
          "indexed": true,
          "internalType": "uint256",
          "name": "tokenId",
          "type": "uint256"
        }
      ],
      "name": "Transfer",
      "type": "event"
    },
    {
      "inputs": [
        {
          "internalType": "address",
          "name": "to",
          "type": "address"
        },
        {
          "internalType": "uint256",
          "name": "tokenId",
          "type": "uint256"
        }
      ],
      "name": "approve",
      "outputs": [],
      "stateMutability": "nonpayable",
      "type": "function"
    },
    {
      "inputs": [
        {
          "internalType": "address",
          "name": "owner",
          "type": "address"
        }
      ],
      "name": "balanceOf",
      "outputs": [
        {
          "internalType": "uint256",
          "name": "",
          "type": "uint256"
        }
      ],
      "stateMutability": "view",
      "type": "function"
    },
    {
      "inputs": [],
      "name": "baseURI",
      "outputs": [
        {
          "internalType": "string",
          "name": "",
          "type": "string"
        }
      ],
      "stateMutability": "view",
      "type": "function"
    },
    {
      "inputs": [
        {
          "internalType": "uint256",
          "name": "tokenId",
          "type": "uint256"
        }
      ],
      "name": "getApproved",
      "outputs": [
        {
          "internalType": "address",
          "name": "",
          "type": "address"
        }
      ],
      "stateMutability": "view",
      "type": "function"
    },
    {
      "inputs": [
        {
          "internalType": "address",
          "name": "owner",
          "type": "address"
        },
        {
          "internalType": "address",
          "name": "operator",
          "type": "address"
        }
      ],
      "name": "isApprovedForAll",
      "outputs": [
        {
          "internalType": "bool",
          "name": "",
          "type": "bool"
        }
      ],
      "stateMutability": "view",
      "type": "function"
    },
    {
      "inputs": [],
      "name": "name",
      "outputs": [
        {
          "internalType": "string",
          "name": "",
          "type": "string"
        }
      ],
      "stateMutability": "view",
      "type": "function"
    },
    {
      "inputs": [],
      "name": "owner",
      "outputs": [
        {
          "internalType": "address",
          "name": "",
          "type": "address"
        }
      ],
      "stateMutability": "view",
      "type": "function"
    },
    {
      "inputs": [
        {
          "internalType": "uint256",
          "name": "tokenId",
          "type": "uint256"
        }
      ],
      "name": "ownerOf",
      "outputs": [
        {
          "internalType": "address",
          "name": "",
          "type": "address"
        }
      ],
      "stateMutability": "view",
      "type": "function"
    },
    {
      "inputs": [],
      "name": "renounceOwnership",
      "outputs": [],
      "stateMutability": "nonpayable",
      "type": "function"
    },
    {
      "inputs": [
        {
          "internalType": "address",
          "name": "from",
          "type": "address"
        },
        {
          "internalType": "address",
          "name": "to",
          "type": "address"
        },
        {
          "internalType": "uint256",
          "name": "tokenId",
          "type": "uint256"
        }
      ],
      "name": "safeTransferFrom",
      "outputs": [],
      "stateMutability": "nonpayable",
      "type": "function"
    },
    {
      "inputs": [
        {
          "internalType": "address",
          "name": "from",
          "type": "address"
        },
        {
          "internalType": "address",
          "name": "to",
          "type": "address"
        },
        {
          "internalType": "uint256",
          "name": "tokenId",
          "type": "uint256"
        },
        {
          "internalType": "bytes",
          "name": "_data",
          "type": "bytes"
        }
      ],
      "name": "safeTransferFrom",
      "outputs": [],
      "stateMutability": "nonpayable",
      "type": "function"
    },
    {
      "inputs": [
        {
          "internalType": "address",
          "name": "operator",
          "type": "address"
        },
        {
          "internalType": "bool",
          "name": "approved",
          "type": "bool"
        }
      ],
      "name": "setApprovalForAll",
      "outputs": [],
      "stateMutability": "nonpayable",
      "type": "function"
    },
    {
      "inputs": [
        {
          "internalType": "bytes4",
          "name": "interfaceId",
          "type": "bytes4"
        }
      ],
      "name": "supportsInterface",
      "outputs": [
        {
          "internalType": "bool",
          "name": "",
          "type": "bool"
        }
      ],
      "stateMutability": "view",
      "type": "function"
    },
    {
      "inputs": [],
      "name": "symbol",
      "outputs": [
        {
          "internalType": "string",
          "name": "",
          "type": "string"
        }
      ],
      "stateMutability": "view",
      "type": "function"
    },
    {
      "inputs": [
        {
          "internalType": "uint256",
          "name": "tokenId",
          "type": "uint256"
        }
      ],
      "name": "tokenURI",
      "outputs": [
        {
          "internalType": "string",
          "name": "",
          "type": "string"
        }
      ],
      "stateMutability": "view",
      "type": "function"
    },
    {
      "inputs": [
        {
          "internalType": "address",
          "name": "from",
          "type": "address"
        },
        {
          "internalType": "address",
          "name": "to",
          "type": "address"
        },
        {
          "internalType": "uint256",
          "name": "tokenId",
          "type": "uint256"
        }
      ],
      "name": "transferFrom",
      "outputs": [],
      "stateMutability": "nonpayable",
      "type": "function"
    },
    {
      "inputs": [
        {
          "internalType": "address",
          "name": "newOwner",
          "type": "address"
        }
      ],
      "name": "transferOwnership",
      "outputs": [],
      "stateMutability": "nonpayable",
      "type": "function"
    }
  ],
  "bytecode": "0x608060405260405180608001604052806059815260200162002b5e605991396007908051906020019062000035929190620001d8565b503480156200004357600080fd5b506040518060400160405280600a81526020017f5368726f64794275636b000000000000000000000000000000000000000000008152506040518060400160405280600681526020017f5368726f647900000000000000000000000000000000000000000000000000008152508160009080519060200190620000c8929190620001d8565b508060019080519060200190620000e1929190620001d8565b50505062000104620000f86200010a60201b60201c565b6200011260201b60201c565b620002ed565b600033905090565b6000600660009054906101000a900473ffffffffffffffffffffffffffffffffffffffff16905081600660006101000a81548173ffffffffffffffffffffffffffffffffffffffff021916908373ffffffffffffffffffffffffffffffffffffffff1602179055508173ffffffffffffffffffffffffffffffffffffffff168173ffffffffffffffffffffffffffffffffffffffff167f8be0079c531659141344cd1fd0a4f28419497f9722a3daafe3b4186f6b6457e060405160405180910390a35050565b828054620001e69062000288565b90600052602060002090601f0160209004810192826200020a576000855562000256565b82601f106200022557805160ff191683800117855562000256565b8280016001018555821562000256579182015b828111156200025557825182559160200191906001019062000238565b5b50905062000265919062000269565b5090565b5b80821115620002845760008160009055506001016200026a565b5090565b60006002820490506001821680620002a157607f821691505b60208210811415620002b857620002b7620002be565b5b50919050565b7f4e487b7100000000000000000000000000000000000000000000000000000000600052602260045260246000fd5b61286180620002fd6000396000f3fe608060405234801561001057600080fd5b506004361061010b5760003560e01c806370a08231116100a2578063a22cb46511610071578063a22cb465146102a6578063b88d4fde146102c2578063c87b56dd146102de578063e985e9c51461030e578063f2fde38b1461033e5761010b565b806370a0823114610230578063715018a6146102605780638da5cb5b1461026a57806395d89b41146102885761010b565b806323b872dd116100de57806323b872dd146101aa57806342842e0e146101c65780636352211e146101e25780636c0360eb146102125761010b565b806301ffc9a71461011057806306fdde0314610140578063081812fc1461015e578063095ea7b31461018e575b600080fd5b61012a60048036038101906101259190611a3d565b61035a565b6040516101379190611dfd565b60405180910390f35b61014861043c565b6040516101559190611e18565b60405180910390f35b61017860048036038101906101739190611a8f565b6104ce565b6040516101859190611d96565b60405180910390f35b6101a860048036038101906101a39190611a01565b610553565b005b6101c460048036038101906101bf91906118fb565b61066b565b005b6101e060048036038101906101db91906118fb565b6106cb565b005b6101fc60048036038101906101f79190611a8f565b6106eb565b6040516102099190611d96565b60405180910390f35b61021a61079d565b6040516102279190611e18565b60405180910390f35b61024a60048036038101906102459190611896565b61082b565b6040516102579190611ffa565b60405180910390f35b6102686108e3565b005b61027261096b565b60405161027f9190611d96565b60405180910390f35b610290610995565b60405161029d9190611e18565b60405180910390f35b6102c060048036038101906102bb91906119c5565b610a27565b005b6102dc60048036038101906102d7919061194a565b610a3d565b005b6102f860048036038101906102f39190611a8f565b610a9f565b6040516103059190611e18565b60405180910390f35b610328600480360381019061032391906118bf565b610b46565b6040516103359190611dfd565b60405180910390f35b61035860048036038101906103539190611896565b610bda565b005b60007f80ac58cd000000000000000000000000000000000000000000000000000000007bffffffffffffffffffffffffffffffffffffffffffffffffffffffff1916827bffffffffffffffffffffffffffffffffffffffffffffffffffffffff1916148061042557507f5b5e139f000000000000000000000000000000000000000000000000000000007bffffffffffffffffffffffffffffffffffffffffffffffffffffffff1916827bffffffffffffffffffffffffffffffffffffffffffffffffffffffff1916145b80610435575061043482610cd2565b5b9050919050565b60606000805461044b9061221f565b80601f01602080910402602001604051908101604052809291908181526020018280546104779061221f565b80156104c45780601f10610499576101008083540402835291602001916104c4565b820191906000526020600020905b8154815290600101906020018083116104a757829003601f168201915b5050505050905090565b60006104d982610d3c565b610518576040517f08c379a000000000000000000000000000000000000000000000000000000000815260040161050f90611f5a565b60405180910390fd5b6004600083815260200190815260200160002060009054906101000a900473ffffffffffffffffffffffffffffffffffffffff169050919050565b600061055e826106eb565b90508073ffffffffffffffffffffffffffffffffffffffff168373ffffffffffffffffffffffffffffffffffffffff1614156105cf576040517f08c379a00000000000000000000000000000000000000000000000000000000081526004016105c690611fba565b60405180910390fd5b8073ffffffffffffffffffffffffffffffffffffffff166105ee610da8565b73ffffffffffffffffffffffffffffffffffffffff16148061061d575061061c81610617610da8565b610b46565b5b61065c576040517f08c379a000000000000000000000000000000000000000000000000000000000815260040161065390611efa565b60405180910390fd5b6106668383610db0565b505050565b61067c610676610da8565b82610e69565b6106bb576040517f08c379a00000000000000000000000000000000000000000000000000000000081526004016106b290611fda565b60405180910390fd5b6106c6838383610f47565b505050565b6106e683838360405180602001604052806000815250610a3d565b505050565b6000806002600084815260200190815260200160002060009054906101000a900473ffffffffffffffffffffffffffffffffffffffff169050600073ffffffffffffffffffffffffffffffffffffffff168173ffffffffffffffffffffffffffffffffffffffff161415610794576040517f08c379a000000000000000000000000000000000000000000000000000000000815260040161078b90611f3a565b60405180910390fd5b80915050919050565b600780546107aa9061221f565b80601f01602080910402602001604051908101604052809291908181526020018280546107d69061221f565b80156108235780601f106107f857610100808354040283529160200191610823565b820191906000526020600020905b81548152906001019060200180831161080657829003601f168201915b505050505081565b60008073ffffffffffffffffffffffffffffffffffffffff168273ffffffffffffffffffffffffffffffffffffffff16141561089c576040517f08c379a000000000000000000000000000000000000000000000000000000000815260040161089390611f1a565b60405180910390fd5b600360008373ffffffffffffffffffffffffffffffffffffffff1673ffffffffffffffffffffffffffffffffffffffff168152602001908152602001600020549050919050565b6108eb610da8565b73ffffffffffffffffffffffffffffffffffffffff1661090961096b565b73ffffffffffffffffffffffffffffffffffffffff161461095f576040517f08c379a000000000000000000000000000000000000000000000000000000000815260040161095690611f7a565b60405180910390fd5b61096960006111ae565b565b6000600660009054906101000a900473ffffffffffffffffffffffffffffffffffffffff16905090565b6060600180546109a49061221f565b80601f01602080910402602001604051908101604052809291908181526020018280546109d09061221f565b8015610a1d5780601f106109f257610100808354040283529160200191610a1d565b820191906000526020600020905b815481529060010190602001808311610a0057829003601f168201915b5050505050905090565b610a39610a32610da8565b8383611274565b5050565b610a4e610a48610da8565b83610e69565b610a8d576040517f08c379a0000000000000000000000000000000000000000000000000000000008152600401610a8490611fda565b60405180910390fd5b610a99848484846113e1565b50505050565b6060610aaa82610d3c565b610ae9576040517f08c379a0000000000000000000000000000000000000000000000000000000008152600401610ae090611f9a565b60405180910390fd5b6000610af361143d565b90506000815111610b135760405180602001604052806000815250610b3e565b80610b1d84611454565b604051602001610b2e929190611d72565b6040516020818303038152906040525b915050919050565b6000600560008473ffffffffffffffffffffffffffffffffffffffff1673ffffffffffffffffffffffffffffffffffffffff16815260200190815260200160002060008373ffffffffffffffffffffffffffffffffffffffff1673ffffffffffffffffffffffffffffffffffffffff16815260200190815260200160002060009054906101000a900460ff16905092915050565b610be2610da8565b73ffffffffffffffffffffffffffffffffffffffff16610c0061096b565b73ffffffffffffffffffffffffffffffffffffffff1614610c56576040517f08c379a0000000000000000000000000000000000000000000000000000000008152600401610c4d90611f7a565b60405180910390fd5b600073ffffffffffffffffffffffffffffffffffffffff168173ffffffffffffffffffffffffffffffffffffffff161415610cc6576040517f08c379a0000000000000000000000000000000000000000000000000000000008152600401610cbd90611e5a565b60405180910390fd5b610ccf816111ae565b50565b60007f01ffc9a7000000000000000000000000000000000000000000000000000000007bffffffffffffffffffffffffffffffffffffffffffffffffffffffff1916827bffffffffffffffffffffffffffffffffffffffffffffffffffffffff1916149050919050565b60008073ffffffffffffffffffffffffffffffffffffffff166002600084815260200190815260200160002060009054906101000a900473ffffffffffffffffffffffffffffffffffffffff1673ffffffffffffffffffffffffffffffffffffffff1614159050919050565b600033905090565b816004600083815260200190815260200160002060006101000a81548173ffffffffffffffffffffffffffffffffffffffff021916908373ffffffffffffffffffffffffffffffffffffffff160217905550808273ffffffffffffffffffffffffffffffffffffffff16610e23836106eb565b73ffffffffffffffffffffffffffffffffffffffff167f8c5be1e5ebec7d5bd14f71427d1e84f3dd0314c0f7b2291e5b200ac8c7c3b92560405160405180910390a45050565b6000610e7482610d3c565b610eb3576040517f08c379a0000000000000000000000000000000000000000000000000000000008152600401610eaa90611eda565b60405180910390fd5b6000610ebe836106eb565b90508073ffffffffffffffffffffffffffffffffffffffff168473ffffffffffffffffffffffffffffffffffffffff161480610f2d57508373ffffffffffffffffffffffffffffffffffffffff16610f15846104ce565b73ffffffffffffffffffffffffffffffffffffffff16145b80610f3e5750610f3d8185610b46565b5b91505092915050565b8273ffffffffffffffffffffffffffffffffffffffff16610f67826106eb565b73ffffffffffffffffffffffffffffffffffffffff1614610fbd576040517f08c379a0000000000000000000000000000000000000000000000000000000008152600401610fb490611e7a565b60405180910390fd5b600073ffffffffffffffffffffffffffffffffffffffff168273ffffffffffffffffffffffffffffffffffffffff16141561102d576040517f08c379a000000000000000000000000000000000000000000000000000000000815260040161102490611e9a565b60405180910390fd5b611038838383611601565b611043600082610db0565b6001600360008573ffffffffffffffffffffffffffffffffffffffff1673ffffffffffffffffffffffffffffffffffffffff16815260200190815260200160002060008282546110939190612135565b925050819055506001600360008473ffffffffffffffffffffffffffffffffffffffff1673ffffffffffffffffffffffffffffffffffffffff16815260200190815260200160002060008282546110ea91906120ae565b92505081905550816002600083815260200190815260200160002060006101000a81548173ffffffffffffffffffffffffffffffffffffffff021916908373ffffffffffffffffffffffffffffffffffffffff160217905550808273ffffffffffffffffffffffffffffffffffffffff168473ffffffffffffffffffffffffffffffffffffffff167fddf252ad1be2c89b69c2b068fc378daa952ba7f163c4a11628f55a4df523b3ef60405160405180910390a46111a9838383611606565b505050565b6000600660009054906101000a900473ffffffffffffffffffffffffffffffffffffffff16905081600660006101000a81548173ffffffffffffffffffffffffffffffffffffffff021916908373ffffffffffffffffffffffffffffffffffffffff1602179055508173ffffffffffffffffffffffffffffffffffffffff168173ffffffffffffffffffffffffffffffffffffffff167f8be0079c531659141344cd1fd0a4f28419497f9722a3daafe3b4186f6b6457e060405160405180910390a35050565b8173ffffffffffffffffffffffffffffffffffffffff168373ffffffffffffffffffffffffffffffffffffffff1614156112e3576040517f08c379a00000000000000000000000000000000000000000000000000000000081526004016112da90611eba565b60405180910390fd5b80600560008573ffffffffffffffffffffffffffffffffffffffff1673ffffffffffffffffffffffffffffffffffffffff16815260200190815260200160002060008473ffffffffffffffffffffffffffffffffffffffff1673ffffffffffffffffffffffffffffffffffffffff16815260200190815260200160002060006101000a81548160ff0219169083151502179055508173ffffffffffffffffffffffffffffffffffffffff168373ffffffffffffffffffffffffffffffffffffffff167f17307eab39ab6107e8899845ad3d59bd9653f200f220920489ca2b5937696c31836040516113d49190611dfd565b60405180910390a3505050565b6113ec848484610f47565b6113f88484848461160b565b611437576040517f08c379a000000000000000000000000000000000000000000000000000000000815260040161142e90611e3a565b60405180910390fd5b50505050565b606060405180602001604052806000815250905090565b6060600082141561149c576040518060400160405280600181526020017f300000000000000000000000000000000000000000000000000000000000000081525090506115fc565b600082905060005b600082146114ce5780806114b790612282565b915050600a826114c79190612104565b91506114a4565b60008167ffffffffffffffff811115611510577f4e487b7100000000000000000000000000000000000000000000000000000000600052604160045260246000fd5b6040519080825280601f01601f1916602001820160405280156115425781602001600182028036833780820191505090505b5090505b600085146115f55760018261155b9190612135565b9150600a8561156a91906122cb565b603061157691906120ae565b60f81b8183815181106115b2577f4e487b7100000000000000000000000000000000000000000000000000000000600052603260045260246000fd5b60200101907effffffffffffffffffffffffffffffffffffffffffffffffffffffffffffff1916908160001a905350600a856115ee9190612104565b9450611546565b8093505050505b919050565b505050565b505050565b600061162c8473ffffffffffffffffffffffffffffffffffffffff166117a2565b15611795578373ffffffffffffffffffffffffffffffffffffffff1663150b7a02611655610da8565b8786866040518563ffffffff1660e01b81526004016116779493929190611db1565b602060405180830381600087803b15801561169157600080fd5b505af19250505080156116c257506040513d601f19601f820116820180604052508101906116bf9190611a66565b60015b611745573d80600081146116f2576040519150601f19603f3d011682016040523d82523d6000602084013e6116f7565b606091505b5060008151141561173d576040517f08c379a000000000000000000000000000000000000000000000000000000000815260040161173490611e3a565b60405180910390fd5b805181602001fd5b63150b7a0260e01b7bffffffffffffffffffffffffffffffffffffffffffffffffffffffff1916817bffffffffffffffffffffffffffffffffffffffffffffffffffffffff19161491505061179a565b600190505b949350505050565b6000808273ffffffffffffffffffffffffffffffffffffffff163b119050919050565b60006117d86117d38461203a565b612015565b9050828152602081018484840111156117f057600080fd5b6117fb8482856121dd565b509392505050565b600081359050611812816127cf565b92915050565b600081359050611827816127e6565b92915050565b60008135905061183c816127fd565b92915050565b600081519050611851816127fd565b92915050565b600082601f83011261186857600080fd5b81356118788482602086016117c5565b91505092915050565b60008135905061189081612814565b92915050565b6000602082840312156118a857600080fd5b60006118b684828501611803565b91505092915050565b600080604083850312156118d257600080fd5b60006118e085828601611803565b92505060206118f185828601611803565b9150509250929050565b60008060006060848603121561191057600080fd5b600061191e86828701611803565b935050602061192f86828701611803565b925050604061194086828701611881565b9150509250925092565b6000806000806080858703121561196057600080fd5b600061196e87828801611803565b945050602061197f87828801611803565b935050604061199087828801611881565b925050606085013567ffffffffffffffff8111156119ad57600080fd5b6119b987828801611857565b91505092959194509250565b600080604083850312156119d857600080fd5b60006119e685828601611803565b92505060206119f785828601611818565b9150509250929050565b60008060408385031215611a1457600080fd5b6000611a2285828601611803565b9250506020611a3385828601611881565b9150509250929050565b600060208284031215611a4f57600080fd5b6000611a5d8482850161182d565b91505092915050565b600060208284031215611a7857600080fd5b6000611a8684828501611842565b91505092915050565b600060208284031215611aa157600080fd5b6000611aaf84828501611881565b91505092915050565b611ac181612169565b82525050565b611ad08161217b565b82525050565b6000611ae18261206b565b611aeb8185612081565b9350611afb8185602086016121ec565b611b04816123b8565b840191505092915050565b6000611b1a82612076565b611b248185612092565b9350611b348185602086016121ec565b611b3d816123b8565b840191505092915050565b6000611b5382612076565b611b5d81856120a3565b9350611b6d8185602086016121ec565b80840191505092915050565b6000611b86603283612092565b9150611b91826123c9565b604082019050919050565b6000611ba9602683612092565b9150611bb482612418565b604082019050919050565b6000611bcc602583612092565b9150611bd782612467565b604082019050919050565b6000611bef602483612092565b9150611bfa826124b6565b604082019050919050565b6000611c12601983612092565b9150611c1d82612505565b602082019050919050565b6000611c35602c83612092565b9150611c408261252e565b604082019050919050565b6000611c58603883612092565b9150611c638261257d565b604082019050919050565b6000611c7b602a83612092565b9150611c86826125cc565b604082019050919050565b6000611c9e602983612092565b9150611ca98261261b565b604082019050919050565b6000611cc1602c83612092565b9150611ccc8261266a565b604082019050919050565b6000611ce4602083612092565b9150611cef826126b9565b602082019050919050565b6000611d07602f83612092565b9150611d12826126e2565b604082019050919050565b6000611d2a602183612092565b9150611d3582612731565b604082019050919050565b6000611d4d603183612092565b9150611d5882612780565b604082019050919050565b611d6c816121d3565b82525050565b6000611d7e8285611b48565b9150611d8a8284611b48565b91508190509392505050565b6000602082019050611dab6000830184611ab8565b92915050565b6000608082019050611dc66000830187611ab8565b611dd36020830186611ab8565b611de06040830185611d63565b8181036060830152611df28184611ad6565b905095945050505050565b6000602082019050611e126000830184611ac7565b92915050565b60006020820190508181036000830152611e328184611b0f565b905092915050565b60006020820190508181036000830152611e5381611b79565b9050919050565b60006020820190508181036000830152611e7381611b9c565b9050919050565b60006020820190508181036000830152611e9381611bbf565b9050919050565b60006020820190508181036000830152611eb381611be2565b9050919050565b60006020820190508181036000830152611ed381611c05565b9050919050565b60006020820190508181036000830152611ef381611c28565b9050919050565b60006020820190508181036000830152611f1381611c4b565b9050919050565b60006020820190508181036000830152611f3381611c6e565b9050919050565b60006020820190508181036000830152611f5381611c91565b9050919050565b60006020820190508181036000830152611f7381611cb4565b9050919050565b60006020820190508181036000830152611f9381611cd7565b9050919050565b60006020820190508181036000830152611fb381611cfa565b9050919050565b60006020820190508181036000830152611fd381611d1d565b9050919050565b60006020820190508181036000830152611ff381611d40565b9050919050565b600060208201905061200f6000830184611d63565b92915050565b600061201f612030565b905061202b8282612251565b919050565b6000604051905090565b600067ffffffffffffffff82111561205557612054612389565b5b61205e826123b8565b9050602081019050919050565b600081519050919050565b600081519050919050565b600082825260208201905092915050565b600082825260208201905092915050565b600081905092915050565b60006120b9826121d3565b91506120c4836121d3565b9250827fffffffffffffffffffffffffffffffffffffffffffffffffffffffffffffffff038211156120f9576120f86122fc565b5b828201905092915050565b600061210f826121d3565b915061211a836121d3565b92508261212a5761212961232b565b5b828204905092915050565b6000612140826121d3565b915061214b836121d3565b92508282101561215e5761215d6122fc565b5b828203905092915050565b6000612174826121b3565b9050919050565b60008115159050919050565b60007fffffffff0000000000000000000000000000000000000000000000000000000082169050919050565b600073ffffffffffffffffffffffffffffffffffffffff82169050919050565b6000819050919050565b82818337600083830152505050565b60005b8381101561220a5780820151818401526020810190506121ef565b83811115612219576000848401525b50505050565b6000600282049050600182168061223757607f821691505b6020821081141561224b5761224a61235a565b5b50919050565b61225a826123b8565b810181811067ffffffffffffffff8211171561227957612278612389565b5b80604052505050565b600061228d826121d3565b91507fffffffffffffffffffffffffffffffffffffffffffffffffffffffffffffffff8214156122c0576122bf6122fc565b5b600182019050919050565b60006122d6826121d3565b91506122e1836121d3565b9250826122f1576122f061232b565b5b828206905092915050565b7f4e487b7100000000000000000000000000000000000000000000000000000000600052601160045260246000fd5b7f4e487b7100000000000000000000000000000000000000000000000000000000600052601260045260246000fd5b7f4e487b7100000000000000000000000000000000000000000000000000000000600052602260045260246000fd5b7f4e487b7100000000000000000000000000000000000000000000000000000000600052604160045260246000fd5b6000601f19601f8301169050919050565b7f4552433732313a207472616e7366657220746f206e6f6e20455243373231526560008201527f63656976657220696d706c656d656e7465720000000000000000000000000000602082015250565b7f4f776e61626c653a206e6577206f776e657220697320746865207a65726f206160008201527f6464726573730000000000000000000000000000000000000000000000000000602082015250565b7f4552433732313a207472616e736665722066726f6d20696e636f72726563742060008201527f6f776e6572000000000000000000000000000000000000000000000000000000602082015250565b7f4552433732313a207472616e7366657220746f20746865207a65726f2061646460008201527f7265737300000000000000000000000000000000000000000000000000000000602082015250565b7f4552433732313a20617070726f766520746f2063616c6c657200000000000000600082015250565b7f4552433732313a206f70657261746f7220717565727920666f72206e6f6e657860008201527f697374656e7420746f6b656e0000000000000000000000000000000000000000602082015250565b7f4552433732313a20617070726f76652063616c6c6572206973206e6f74206f7760008201527f6e6572206e6f7220617070726f76656420666f7220616c6c0000000000000000602082015250565b7f4552433732313a2062616c616e636520717565727920666f7220746865207a6560008201527f726f206164647265737300000000000000000000000000000000000000000000602082015250565b7f4552433732313a206f776e657220717565727920666f72206e6f6e657869737460008201527f656e7420746f6b656e0000000000000000000000000000000000000000000000602082015250565b7f4552433732313a20617070726f76656420717565727920666f72206e6f6e657860008201527f697374656e7420746f6b656e0000000000000000000000000000000000000000602082015250565b7f4f776e61626c653a2063616c6c6572206973206e6f7420746865206f776e6572600082015250565b7f4552433732314d657461646174613a2055524920717565727920666f72206e6f60008201527f6e6578697374656e7420746f6b656e0000000000000000000000000000000000602082015250565b7f4552433732313a20617070726f76616c20746f2063757272656e74206f776e6560008201527f7200000000000000000000000000000000000000000000000000000000000000602082015250565b7f4552433732313a207472616e736665722063616c6c6572206973206e6f74206f60008201527f776e6572206e6f7220617070726f766564000000000000000000000000000000602082015250565b6127d881612169565b81146127e357600080fd5b50565b6127ef8161217b565b81146127fa57600080fd5b50565b61280681612187565b811461281157600080fd5b50565b61281d816121d3565b811461282857600080fd5b5056fea26469706673582212201584054611dcb1fb3f1a62e78ecd734b5674a492390967a3d3711af88e58907864736f6c6343000804003368747470733a2f2f6261667962656964686a6a626a6f6e7971636168757a6c707437737a6e6d683478726c62737061336773746f70356f34376c3667736961666665652e697066732e6e667473746f726167652e6c696e6b2f",
  "linkReferences": {},
  "deployedLinkReferences": {}
}